{
  "contractName": "ViriToken",
  "abi": [
    {
      "inputs": [],
      "payable": false,
      "stateMutability": "nonpayable",
      "type": "constructor"
    },
    {
      "constant": true,
      "inputs": [],
      "name": "totalSupply",
      "outputs": [
        {
          "internalType": "uint256",
          "name": "",
          "type": "uint256"
        }
      ],
      "payable": false,
      "stateMutability": "view",
      "type": "function"
    }
  ],
  "bytecode": "0x6080604052348015600f57600080fd5b50620f42406000819055506084806100286000396000f3fe6080604052348015600f57600080fd5b506004361060285760003560e01c806318160ddd14602d575b600080fd5b60336049565b6040518082815260200191505060405180910390f35b6000548156fea265627a7a72315820ebbe6effb56c275aff8ec0133bc3f0dd916782eebeea565e5744de7f88fd100664736f6c63430005100032",
  "source": "// SPDX-License-Identifier: GPL-3.0\r\n\r\npragma solidity >=0.4.2 <0.9.0;\r\n\r\ncontract ViriToken {\r\n\r\n//state variable to hold the totalSupply of viriTokens\r\nuint256 public totalSupply;\r\n\r\n//constructor to initilize totalSupply of viriTokens\r\n\r\nconstructor() public {\r\n totalSupply=1000000;\r\n}\r\n\r\n}",
  "sourcePath": "D:/BlockchainProjects/token_sale/contracts/ViriToken.sol",
  "compiler": {
    "name": "solc",
    "version": "0.5.16+commit.9c3226ce.Emscripten.clang"
  },
  "schemaVersion": "3.3.3",
  "updatedAt": "2020-12-19T13:28:36.058Z",
  "networkType": "ethereum",
  "devdoc": {
    "methods": {}
  },
  "userdoc": {
    "methods": {}
  }
}